:020000040800F2
:100000002004002001010008090100080B0100087C
:100010000D0100080F010008110100080000000098
:1000200000000000000000000000000013010008B4
:100030001501000800000000170100081901000860
:100040001B0100081B0100081B0100081B01000820
:100050001B0100081B0100081B0100081B01000810
:100060001B0100081B0100081B0100081B01000800
:100070001B0100081B0100081B0100081B010008F0
:100080001B0100081B0100081B0100081B010008E0
:100090001B0100081B0100081B0100081B010008D0
:1000A0001B0100081B0100081B0100081B010008C0
:1000B0001D0400081B010008E10400081B010008E2
:1000C0001B0100081B0100081B0100081B010008A0
:1000D0001B0100081B0100081B0100081B01000890
:1000E0001B0100081B0100081B010008DFF80CD0F1
:1000F00000F018F800480047D1060008200400204E
:100100000648804706480047FEE7FEE7FEE7FEE7B1
:10011000FEE7FEE7FEE7FEE7FEE7FEE7DD03000899
:10012000ED000008064C074D06E0E06840F00103D2
:1001300094E8070098471034AC42F6D3FFF7DAFF93
:100140005007000870070008F0B5CA78002502F0D3
:100150000F03D20601D58A7813430C784FF00F0EA7
:100160000122ECB1D0F800400F8802FA05F63740C2
:10017000B74211D14FEA850C0EFA0CF724EA0707B3
:1001800003FA0CF43C43CF78282F02D0482F02D03A
:1001900002E0466100E006616D1C082DE4D30460B6
:1001A0000C88FF2C1ED944685FF0000606F1080792
:1001B00002FA07F50F882F40AF420FD14FEA860CA5
:1001C0000EFA0CF7BC4303FA0CF73C43CF78282F08
:1001D00000D14561CF78482F00D10561761C082EEB
:1001E000E4D34460F0BD00000248016881F00201E0
:1001F000016070470C0C01400248016881F4006105
:10020000016070470C0C014008B50121082000F086
:1002100085F84CF60200ADF8000003208DF80200CE
:1002200010208DF8030069460148FFF78DFF08BDD7
:10023000000C014008B50121082000F06FF83020C3
:10024000ADF8000003208DF8020048208DF803006F
:1002500069460248FFF778FF08BD0000000C014026
:1002600008B54FF4A06000F043F81E208DF80000A0
:1002700002208DF8010000208DF8020001208DF889
:100280000300684600F002F808BD0000F0B50F2139
:10029000C478027801234FF0E026DCB1124C2468C8
:1002A000457804F4E064C4F5E064240AC4F104076A
:1002B000E1408478BD400C402C4321010B4C11558A
:1002C000007800F01F018B40400906EB8000C0F869
:1002D0000031F0BD02F01F008340500906EB8000A2
:1002E000C0F88031F0BD00000CED00E000E400E05B
:1002F0000249084302490860704700000000FA05FF
:100300000CED00E0044A0029D16901D0014300E06E
:100310008143D1617047000000100240044A002967
:10032000916901D0014300E0814391617047000071
:10033000001002400CB5002126480191009102688E
:1003400042F4803202604FF4A063026802F400328B
:100350000092019A521C0192009A12B9019A9A4293
:10036000F3D10268920333D5012100911A490A683A
:1003700042F010020A600A6822F003020A600A686A
:1003800042F002020A604168416041684160416890
:1003900041F480614160416821F47C114160416811
:1003A00041F4E8114160016841F080710160016829
:1003B0008901FCD5416821F003014160416841F0A9
:1003C000020141604168C1F381010229FAD10CBDEB
:1003D00000910CBD00100240002002400C48016852
:1003E00041F00101016041680A4A11404160016821
:1003F000094A11400160016821F4802101604168CF
:1004000021F4FE0141604FF41F018160FFF792BFAC
:10041000001002400000FFF8FFFFF6FE10B50121BA
:100420008C07204600F07FF8002807D001212046E5
:1004300000F06CF8BDE81040FFF7D6BE10BD3EB529
:10044000044601210846FFF75DFF04EB84004FF0EE
:10045000FF3101EB4000ADF8040041F61F40ADF85C
:1004600000000020ADF80600ADF802004FF0804417
:100470006946204600F06CF80121204600F046F85D
:1004800001221146204600F05AF80121204600F0D2
:1004900040F83EBD3EB501210420FFF733FF09209F
:1004A000ADF8040041F61F40ADF8000000200B4CF1
:1004B000ADF80600ADF802006946204600F048F8A5
:1004C0000121204600F022F801221146204600F0CA
:1004D00036F80021204600F01CF83EBD0008004020
:1004E00010B5084C0121204600F01DF8002807D067
:1004F0000121204600F00AF803480168491C016008
:1005000010BD00000008004000000020C943018227
:1005100070470029018802D041F0010101E021F07B
:1005200001010180704702460020138A92890B4224
:1005300002EA010202D0002A00D001207047002AFE
:10054000828901D00A4300E08A438281704700001B
:1005500030B502881B4B1C4C98420DD0A0420BD0EA
:10056000B0F1804F08D0194DA84205D0184DA842CF
:1005700002D0184DA84203D122F070054A882A43C0
:10058000154DA84206D0154DA84203D022F440755F
:10059000CA882A4302808A8882850A88028598420E
:1005A0000AD0A04208D00E4A904205D00D4A90428F
:1005B00002D00D4A904201D1097A0186012181823F
:1005C00030BD0000002C0140003401400004004018
:1005D00000080040000C00400010004000140040E3
:1005E00000400140004401400048014002E008C8CA
:1005F000121F08C1002AFAD170477047002001E09D
:1006000001C1121F002AFBD1704700004FF0E0200B
:10061000016921F00401016103480921017042F2DE
:100620002831418070470000040000204FF4E96148
:10063000884200D908460949498848434FF0E021DB
:1006400048610020886101220A610A69D30701D04C
:10065000D203FAD5086188617047000004000020C9
:1006600070B5054600244FF47A7604E03046FFF773
:10067000DDFF641CA4B2AC42F8D370BD0849097810
:1006800048434FF0E02148610020886101220A615F
:100690000A69D30701D0D203FAD50861886170478F
:1006A0000400002008B501210820FFF737FE802054
:1006B000ADF8000003208DF8020048208DF80300FB
:1006C00069460248FFF740FD08BD0000000C0140EC
:1006D00000F00CF8044C00BFFFF786FDFFF78CFD1F
:1006E000216901208847F7E708000020084810B575
:1006F00000688047FFF7D6FFFFF786FDFFF79AFDFA
:100700004FF47A7000F006F8BDE8104000F018B819
:100710000800002008B5FFF792FE4FF4A060FFF735
:10072000E7FD1C208DF8000002208DF8010001205B
:100730008DF802008DF803006846FFF7A7FD08BD9D
:1007400010B5FFF7A7FEBDE81040FFF789BD000018
:1007500070070008000000201C000000EC050008E5
:100760008C0700081C00002004040000FC050008A1
:1007700000000000000000000D060008000000005E
:0C0780007D0600082D0600086106000838
:0400000508000101ED
:00000001FF
